S02100004156525F333238505F71756164636F707465725F765F315F302E7372656343
S11300000C9434000C9446000C9446000C94460066
S11300100C9446000C9446000C9446000C94460044
S11300200C9446000C9446000C941A0A0C94460056
S11300300C9446000C9446000C9446000C94460024
S11300400C9446000C9446000C94960A0C94D20A24
S11300500C9446000C9446000C9446000C94460004
S11300600C9446000C94460011241FBECFEFD8E038
S1130070DEBFCDBF21E0A0E0B1E001C01D92AD3DE7
S1130080B207E1F70E9474010C94160E0C94000060
S1130090F999FECF92BD81BDF89A80B508951F935A
S11300A0CF93DF93EC010E944800182FCE010196F4
S11300B00E944800982F812FDF91CF911F910895BE
S11300C08093BC008FEFECEBF0E00AC0815041F468
S11300D01092BC00809100018F5F8093000108950D
S11300E0908199239CF708959B01AC011092B9006B
S11300F060E074E284EF90E00E94E50DDA01C9014A
S11301004097A109B109B695A795979587958093CE
S1130110B80084E08093BC0010920001089580939D
S1130120BB0084E80E9460000895CF93C82F84EA3E
S11301300E9460008C2F880F0E948F00CF91089539
S1130140CF93C82F84EA0E9460008C2F880F8160AF
S11301500E948F00CF91089584EC0E9460008091EA
S1130160BB00089584E80E9460008091BB0094E97C
S11301709093BC000895CF93DF93D62FC42F0E9491
S113018095008D2F0E948F008C2F0E948F0084E990
S11301908093BC00DF91CF9108950F931F93CF9369
S11301A0DF9300D000D000D0CDB7DEB7259A60E948
S11301B070ED83E090E00E940A0B60E87AE186E04B
S11301C090E00E9474000E94980112E3AE014F5F18
S11301D05F4FBA01CA010E94B8038FE39FE1019700
S11301E0F1F700C00000115089F780E190E00E940F
S11301F04F000FE911E0F8019183808382E190E0E0
S11302000E944F00F8019383828384E190E00E946E
S11302104F00F8019583848386E190E00E944F00AB
S113022009E911E0F8019183808388E190E00E945C
S11302304F00F801938382838AE190E00E944F008B
S1130240F801958384838CE190E00E944F0003E9D8
S113025011E0F801918380838EE190E00E944F00C9
S1130260F8019383828380E290E00E944F00F801BA
S11302709583848382E290E00E944F000DE811E0B0
S1130280F8019183808384E290E00E944F00F8019A
S11302909383828386E290E00E944F00F801958365
S11302A084830E943F0A0E94580526960FB6F8944C
S11302B0DEBF0FBECDBFDF91CF911F910F91089587
S11302C0CF93DF9300D000D000D0CDB7DEB7CE01FE
S11302D001960E94840526960FB6F894DEBF0FBEE1
S11302E0CDBFDF91CF9108950E94CD000E94650A91
S11302F06093890170938A0180938B0190938C01A0
S11303000E9460010E94650A0091890110918A018E
S113031020918B0130918C01DC01CB01801B910B6E
S1130320A20BB30B883B9B40A105B10558F3DECF6C
S113033040E86BE688E60E94BB002FEF81EE94E074
S1130340215080409040E1F700C0000043E06BE69C
S113035088E60E94BB0043E069E188E60E94BB0096
S113036040E06AE188E60E94BB0048E16BE188E670
S11303700E94BB0040E16CE188E60E94BB004DE0B6
S113038064E288E60E94BB004CE865E288E60E94CD
S1130390BB0045E066E288E60E94BB0042ED67E2EE
S11303A088E60E94BB004CE868E288E60E94BB0035
S11303B043E069E288E60E94BB0042ED6AE288E617
S11303C00E94BB004CE86BE288E60E94BB0047E059
S11303D06CE288E60E94BB0042ED6DE288E60E9472
S11303E0BB004CE06EE288E60E94BB004AE06FE28C
S11303F088E60E94BB0041E860E388E60E94BB00F7
S113040043E164E388E60E94BB0041E066E688E6D7
S11304100E94BB004FE067E688E60E94BB0040E212
S11304206AE688E60E94BB0008950F931F93CF935A
S11304308C0188E60E94950083E40E948F0088E680
S11304400E94A0000E94AC00C82F0E94AC002C2F78
S113045030E0322F2227282BF801318320830E9499
S1130460AC00C82F0E94AC002C2F30E0322F222782
S1130470282BF801338322830E94AC00C82F0E94EA
S1130480B2002C2F30E0322F2227282BF80135839D
S11304902483CF911F910F9108950F931F93CF93AE
S11304A08C0188E60E94950089E40E948F0088E60A
S11304B00E94A0000E94AC00C82F0E94AC002C2F08
S11304C030E0322F2227282BF801318320830E9429
S11304D0AC00C82F0E94AC002C2F30E0322F222712
S11304E0282BF801338322830E94AC00C82F0E947A
S11304F0B2002C2F30E0322F2227282B3195219562
S11305003109F80135832483CF911F910F91089508
S1130510DF92EF92FF920F931F93CF93DF937C01AF
S1130520EB018A0188E60E9495008BE30E948F000C
S113053088E60E94A0000E94AC00D82E0E94AC0065
S11305402D2D30E0322F2227282B359527953595F0
S113055027953595279535952795F7013183208380
S11305600E94AC00D82E0E94AC002D2D30E0322F1A
S11305702227282B35952795359527953595279549
S113058035952795F701338322830E94AC00D82E3A
S11305900E94AC002D2D30E0322F2227282B3595D8
S11305A02795359527953595279535952795F70101
S11305B0358324830E94AC000E94AC000E94AC00EE
S11305C0F82E0E94AC002F2D30E0322F2227282B4A
S11305D0398328830E94AC00F82E0E94AC002F2D92
S11305E030E0322F2227282B3B832A830E94AC0041
S11305F0F82E0E94AC002F2D30E0322F2227282B1A
S11306003D832C830E94AC00C82F0E94AC002C2F89
S113061030E0322F2227282BF801318320830E94D7
S1130620AC00C82F0E94AC002C2F30E0322F2227C0
S1130630282BF801338322830E94AC00C82F0E9428
S1130640B2002C2F30E0322F2227282B3195219510
S11306503109F80135832483DF91CF911F910F91E4
S1130660FF90EF90DF900895CF93DF93EC010E9409
S11306701502E9E9F1E08881998120813181821BA9
S1130680930B998388838A819B8122813381821B86
S1130690930B9B838A838C819D8124813581821B6A
S11306A0930B9D838C83DF91CF910895CF93DF9338
S11306B0EC010E944D02A3E9B1E0288139818D91BA
S11306C09C911197281B390BEDE8F1E04081518191
S11306D0249FC001259F900D349F900D1124959562
S11306E087959595879595958795959587959595EE
S11306F08795998388832A813B8112968D919C9159
S11307001397281B390B42815381249FC001259FD5
S1130710900D349F900D1124959587959595879507
S11307209595879595958795959587959B838A83C8
S11307302C813D8114968D919C911597281B390B22
S113074044815581249FC001259F900D349F900DB5
S11307501124959587959595879595958795959564
S11307608795959587959D838C83DF91CF91089587
S1130770EF92FF920F931F93CF93DF937C018B0132
S1130780EA010E948802EFE9F1E0D7018D919C9182
S1130790119720813181821B930B11969C938E9328
S11307A012968D919C91139722813381821B930B16
S11307B013969C938E93129714968D919C911597F2
S11307C024813581821B930B15969C938E931497E9
S11307D0E9E9F1E0D8018D919C9111972081318153
S11307E0821B930B11969C938E9312968D919C91E0
S11307F0139722813381821B930B13969C938E93C0
S1130800129714968D919C91159724813581821BA2
S1130810930B15969C938E931497A3E9B1E02881CA
S113082039818D919C911197281B390BEDE8F1E0EA
S113083040815181249FC001259F900D349F900DCC
S11308401124959587959595879595958795959573
S1130850879595958795998388832A813B811296FC
S11308608D919C911397281B390B42815381249FAE
S1130870C001259F900D349F900D11249595879567
S1130880959587959595879595958795959587954C
S11308909B838A832C813D8114968D919C9115971D
S11308A0281B390B44815581249FC001259F900D3D
S11308B0349F900D112495958795959587959595D9
S11308C0879595958795959587959D838C83DF91DD
S11308D0CF911F910F91FF90EF9008959B01AC0170
S11308E0AA27429FB0015302C00134039A0B700D32
S11308F0811D9A1F52039A0B700D811D9A1F11249A
S11309000895CF92DF92EF92FF920F931F938B0182
S11309109C0135952795179507950F2EF9EFCF2E46
S1130920DD24DA94FFE1EF2EFFE5FF2EF02DC01A4F
S1130930D10AE20AF30A27E336E344E35FE30E94C1
S1130940780DA70196010E94780DA70196010E94D7
S1130950780D9B01AC0166EF78E487ED9FE30E947C
S1130960D50BA70196010E94780D1F910F91FF905E
S1130970EF90DF90CF9008954F925F926F927F92A5
S11309808F929F92AF92BF92CF92DF92EF92FF929B
S11309906B017C0149015A010E94EC0C2B013C01C2
S11309A0B701A601FF203CF444275527BA014C198E
S11309B05D096E097F09D501C401BB203CF4882779
S11309C09927DC0188199909AA09BB09481759070D
S11309D06A077B0744F5C501B4010E94EC0C9B0136
S11309E0AC01C301B2010E94420C2B013C019B01EA
S11309F0AC010E94780D21ED31E944E650E40E94F7
S1130A00D60B9B01AC01C301B2010E94420C23EC42
S1130A103DEC4FEF54E40E94780D0E94B40C9B010E
S1130A20BB20C4F529C0C501B4010E94EC0CA3018C
S1130A3092010E94420C4B015C019B01AC010E949B
S1130A40780D21ED31E944E650E40E94D60B9B0178
S1130A50AC01C501B4010E94420C23EC3DEC4FEF04
S1130A6054E40E94780D0E94B40CFF207CF024E82A
S1130A7033E0261B370B0EC0FF2024F49B012850C3
S1130A80374008C09B01285F384F04C02CE73CEF77
S1130A90261B370BC901FF90EF90DF90CF90BF90DA
S1130AA0AF909F908F907F906F905F904F9008953C
S1130AB0CF93DF9300D000D000D0CDB7DEB7CE0106
S1130AC001960E945603EDEBF1E013821282178225
S1130AD0168280E091E093878287E5EAF1E08981DC
S1130AE09A81938382838B819C81978386838D8172
S1130AF09E819387828726960FB6F894DEBF0FBE39
S1130B00CDBFDF91CF9108952F923F924F925F9284
S1130B106F927F928F929F92AF92BF92CF92DF9209
S1130B20EF92FF920F931F93CF93DF93CDB7DEB76E
S1130B3068970FB6F894DEBF0FBECDBF988F8F8B2A
S1130B400E94650A6B017C018091C9019091CA01E0
S1130B50A091CB01B091CC01A7019601281B390BC0
S1130B604A0B5B0BCA01B9010E94EA0C2EE134E482
S1130B7042E958E30E94780D6093D3017093D40145
S1130B808093D5019093D601C092C901D092CA0135
S1130B90E092CB01F092CC01AE01435F5F4FBE0106
S1130BA0695F7F4FCE0101960E94B803C090D301C4
S1130BB0D090D401E090D501F090D60107ED11E07A
S1130BC06F817885D8018D919C91680F791F7595F7
S1130BD06795072E000C880B990B0E94EC0CA7015B
S1130BE096010E94780D0E94B40C4B015C0169854A
S1130BF07A85F80182819381680F791F75956795CD
S1130C00072E000C880B990B0E94EC0CA70196018F
S1130C100E94780D0E94B40C2B013C016B857C85ED
S1130C20D80114968D919C911597680F791F75952D
S1130C306795072E000C880B990B0E94EC0CA701FA
S1130C4096010E94780D0E94B40C6B8B7C8B8D8B6B
S1130C509E8BC4010E94C40B8AE00E942A0BE1EB24
S1130C60F1E00F2EFDEC2F2EF1E03F2EF02DD101FF
S1130C7012968D919C911397092E000CAA0BBB0B15
S1130C804481558166817781481B590B6A0B7B0B24
S1130C90D10114960D911C911597012E000C220B75
S1130CA0330B80859185A285B3856C017D01C01AC3
S1130CB0D10AE20AF30AD1018D919C91092E000C0C
S1130CC0AA0BBB0B0081118122813381081B190BF4
S1130CD02A0B3B0B89819A81092E000CAA0BBB0BB2
S1130CE0080F191F2A1F3B1F00831183228333839C
S1130CF08B819C81092E000CAA0BBB0B480F591F3A
S1130D006A1F7B1F44835583668377838D819E810D
S1130D10092E000CAA0BBB0B8C0D9D1DAE1DBF1D17
S1130D2080879187A287B387689414F835952795AF
S1130D30179507951694D1F7F101118300836894F0
S1130D4014F875956795579547951694D1F753837D
S1130D504283689414F8B595A7959795879516944A
S1130D60D1F7958384830DEB11E06B897C89D801DD
S1130D7016968D919C9117970E946E046B017C01CD
S1130D80B201F801828593850E946E04C61AD70ABF
S1130D90E80AF90AF80180819181A281B381C80E21
S1130DA0D91EEA1EFB1EC082D182E282F382B40104
S1130DB0828593850E946E046B017C016B897C891A
S1130DC0F801828193810E946E04C61AD70AE80A48
S1130DD0F90AF80184819581A681B781C80ED91ECC
S1130DE0EA1EFB1EC482D582E682F782B2018281AA
S1130DF093810E946E046B017C01B401F801868129
S1130E0097810E946E04C61AD70AE80AF90AF80103
S1130E1080859185A285B385C80ED91EEA1EFB1E66
S1130E20C086D186E286F38605EA11E06B897C8967
S1130E30F801868197810E946E046B017C01B201E6
S1130E40D8011A968D919C911B970E946E04C61A24
S1130E50D70AE80AF90AF80180819181A281B38155
S1130E60C80ED91EEA1EFB1EC082D182E282F38222
S1130E70B401828593850E946E046B017C016B89A9
S1130E807C89F801828193810E946E04C61AD70A74
S1130E90E80AF90AF80184819581A681B781C80E10
S1130EA0D91EEA1EFB1EC482D582E682F782B201F5
S1130EB0828193810E946E046B017C01B401F8016C
S1130EC0868197810E946E04C61AD70AE80AF90A35
S1130ED0F80180859185A285B385C80ED91EEA1EC6
S1130EE0FB1EC086D186E286F386F1018081918162
S1130EF0BC010E946E046B017C01D10112968D919C
S1130F009C911397BC010E946E04C60ED71EE81E66
S1130F10F91EF10184819581BC010E946E046C0D5F
S1130F207D1D8E1D9F1D8B019C010A59194D2109A0
S1130F3031090C3C1C442105310508F0F3C00E9422
S1130F40EC0C0E94810420E030E040E853E40E946D
S1130F50780D4B015C010DEB11E0D1016D917C9199
S1130F60072E000C880B990B0E94EC0CA501940130
S1130F700E94780D2B013C01F80162817381072ED8
S1130F80000C880B990B0E94EC0C9B01AC01C30173
S1130F90B2010E94D50B0E94B40CDC01CB01880F76
S1130FA0991FAA1FBB1F880F991FAA1FBB1F880F59
S1130FB0991FAA1FBB1F880F991FAA1FBB1F880F49
S1130FC0991FAA1FBB1F880F991FAA1FBB1F880F39
S1130FD0991FAA1FBB1FF80140815181628173814F
S1130FE0840F951FA61FB71F80839183A283B383A9
S1130FF0D10112966D917C911397072E000C880BEA
S1131000990B0E94EC0CA50194010E94780D2B0110
S11310103C01F80166817781072E000C880B990B3F
S11310200E94EC0C9B01AC01C301B2010E94D50BE0
S11310300E94B40CDC01CB01880F991FAA1FBB1FAF
S1131040880F991FAA1FBB1F880F991FAA1FBB1FB8
S1131050880F991FAA1FBB1F880F991FAA1FBB1FA8
S1131060880F991FAA1FBB1F880F991FAA1FBB1F98
S1131070F8014481558166817781840F951FA61FED
S1131080B71F84839583A683B783D10114966D918A
S11310907C911597072E000C880B990B0E94EC0C81
S11310A0A50194010E94780D6B017C01F801628511
S11310B07385072E000C880B990B0E94EC0C9B0186
S11310C0AC01C701B6010E94D50B0E94B40CDC012F
S11310D0CB01880F991FAA1FBB1F880F991FAA1F36
S11310E0BB1F880F991FAA1FBB1F880F991FAA1F18
S11310F0BB1F880F991FAA1FBB1F880F991FAA1F08
S1131100BB1F880F991FAA1FBB1FF801408551857B
S113111062857385840F951FA61FB71F80879187EB
S1131120A287B38705EA11E08D859E85D8011296C2
S11311302D913C911397821B930B092E000CAA0B43
S1131140BB0BBA2FA92F982F8827F8014081518112
S113115062817381840F951FA61FB71F80839183BB
S1131160A283B3838F85988926813781821B930B51
S1131170092E000CAA0BBB0BBA2FA92F982F882776
S11311804481558166817781840F951FA61FB71FFF
S113119084839583A683B78389899A892285338535
S11311A0821B930B092E000CAA0BBB0BBA2FA92F81
S11311B0982F88274085518562857385840F951FF4
S11311C0A61FB71F80879187A287B3870F2EFDEBD9
S11311D0EF2EF1E0FF2EF02DD70116968D919C9104
S11311E01797BC010E946E044B015C01F7018285D4
S11311F09385BC010E946E04860E971EA81EB91E1C
S1131200D7011A962D913C911B97032E000C440B89
S1131210550B16966D917C911797072E000C880B31
S1131220990B0E94BC04EF89F88D91838083C501DA
S1131230B4010E94EC0C4B015C010E9481049B01EF
S1131240AC01C501B4010E94780D0E94B40C9B014D
S1131250AC01D70112968D919C911397919581952C
S11312609109BC01990F880B990B0E94BC04EF896A
S1131270F88D93838283D8011A966D917C911B9784
S1131280F701868197810E946E044B015C01D801AD
S113129016966D917C911797F701828593850E942C
S11312A06E04861A970AA80AB90AA50194016894DB
S11312B016F855954795379527951694D1F72B8BA6
S11312C03C8B4D8B5E8BD80112966D917C9113975C
S11312D0F701828593850E946E044B015C01D8015D
S11312E01A966D917C911B97F701828193810E94DC
S11312F06E04861A970AA80AB90A689416F8B5946F
S1131300A794979487941694D1F76401D8011696FC
S11313106D917C911797F701828193810E946E04ED
S11313202B013C01D80112966D917C911397F70122
S1131330868197810E946E04461A570A680A790AC0
S1131340689416F875946794579447941694D1F753
S1131350B401C4010E946E044B015C01B201C201DC
S11313600E946E04860E971EA81EB91E1C141D042E
S1131370FCF4C501B4010E94EC0C6B017C010E94D9
S113138081049B01AC01C701B6010E94780D0E9443
S1131390B40C9B01AC01AB89BC89BD01BB0F880BAC
S11313A0990B0E94BC04EF89F88D9583848325C032
S11313B0C501B4010E94EC0C0E9481046B017C0104
S11313C066277727CB01681979098A099B090E9446
S11313D0EC0CA70196010E94780D0E94B40C9B01AD
S11313E0AC01AB89BC89BD01BB0F880B990B0E9472
S11313F0BC04EF89F88D9583848387ED91E00E9486
S1131400340368960FB6F894DEBF0FBECDBFDF91EC
S1131410CF911F910F91FF90EF90DF90CF90BF90ED
S1131420AF909F908F907F906F905F904F903F9080
S11314302F9008951F920F920FB60F9211248F933D
S11314409F93AF93BF938091010190910201A0916A
S11314500301B09104010196A11DB11D8093010106
S113146090930201A0930301B0930401BF91AF9143
S11314709F918F910F900FBE0F901F90189510920F
S113148080008AE1809381008FE0809387008FEF52
S11314908093860080E280936F007894109201011B
S11314A010920201109203011092040191EA94BD7A
S11314B083E085BD8AB180668AB99093B00084E0E8
S11314C08093B100239A539A08950F931F93F8942D
S11314D04091010150910201609103017091040156
S11314E0809184002091850090E0922BB59B07C0E9
S11314F0883C910520F44F5F5F4F6F4F7F4F789486
S1131500032E3BE0440F551F661F771F3A95D1F712
S1131510302D969587958A019B01080F191F211D6F
S1131520311DC901B8011F910F9108951F920F92A7
S11315300FB60F9211248F939F93EF93FF93E09133
S11315404601F0E08091C600EB5FFE4F80838091FE
S1131550460190E001968F739078992324F40197C3
S1131560806C9F6F01968093460190914601809113
S1131570450198130EC08091450190E001968F7348
S11315809078992324F40197806C9F6F019680933F
S11315904501FF91EF919F918F910F900FBE0F9096
S11315A01F9018951F920F920FB60F9211248F93CC
S11315B09F93EF93FF93E0918701F0E0E95BFE4F87
S11315C080818093C6008091870190E001968F739B
S11315D09078992324F40197806C9F6F01968093EF
S11315E08701E0ECF0E08081806480839091880141
S11315F080918701981305C0E1ECF0E080818F7D34
S11316008083FF91EF919F918F910F900FBE0F9068
S11316101F9018959B01AC011092C00088E980933B
S1131620C10086E08093C20060E472E48FE090E041
S11316300E94E50D215031093093C5002093C40068
S113164078941092460110924501109288011092EC
S113165087010895209188019091870129130CC076
S11316609091C00095FF08C08093C600E0ECF0E0C4
S11316708081806480830895E0918801F0E0E95BD3
S1131680FE4F80838091880190E001968F7390785B
S1131690992324F40197806C9F6F019680938801AD
S11316A090918801809187019817D1F3E1ECF0E0E3
S11316B080818062808308951F93CF93DF9300D04D
S11316C000D01F92CDB7DEB7FC019C01ADECBCECA1
S11316D00E94070EAC015695479556954795569529
S11316E047959A01220F331FCA01880F991F880F4B
S11316F0991F880F991F820F931FE81BF90B80E332
S11317008E0F898341155105A1F110E01F5F9A01E5
S1131710ADECBCEC0E94070E96958795969587953F
S113172096958795E1E0F0E0EC0FFD1FE10FF11DC8
S1131730BC01660F771F9C01220F331F220F331F3A
S1131740220F331F260F371F421B530B405D40836C
S1131750AC01892BD9F6E1E0F0E0EC0FFD1FE10FBD
S1131760F11D80810E942A0B812F11508111F3CF2A
S113177002C00E942A0B0F900F900F900F900F90B1
S1131780DF91CF911F910895CF93DF93EC019923BB
S113179034F48DE20E942A0BD195C195D109CE0172
S11317A00E945C0BDF91CF9108955058BB27AA2764
S11317B00E94ED0B0C943E0D0E94300D38F00E94F7
S11317C0370D20F039F49F3F19F426F40C942D0DB5
S11317D00EF4E095E7FB0C94270DE92F0E944F0DC2
S11317E058F3BA17620773078407950720F079F452
S11317F0A6F50C94710D0EF4E0950B2EBA2FA02DC6
S11318000B01B90190010C01CA01A0011124FF27A9
S1131810591B99F0593F50F4503E68F11A16F040A4
S1131820A22F232F342F4427585FF3CF46953795A3
S11318302795A795F0405395C9F77EF41F16BA0B68
S1131840620B730B840BBAF09150A1F0FF0FBB1F16
S1131850661F771F881FC2F70EC0BA0F621F731F5F
S1131860841F48F4879577956795B795F7959E3FBC
S113187008F0B0CF9395880F08F09927EE0F97954D
S1131880879508950E94560C0C943E0D0E94370DC6
S113189058F00E94300D40F029F45F3F29F00C9479
S11318A0270D51110C94720D0C942D0D0E944F0DA7
S11318B068F39923B1F3552391F3951B550BBB277B
S11318C0AA2762177307840738F09F5F5F4F220FC0
S11318D0331F441FAA1FA9F335D00E2E3AF0E0E8B7
S11318E032D091505040E695001CCAF72BD0FE2F01
S11318F029D0660F771F881FBB1F26173707480795
S1131900AB07B0E809F0BB0B802DBF01FF2793584C
S11319105F4F3AF09E3F510578F00C94270D0C94DC
S1131920720D5F3FE4F3983ED4F3869577956795FF
S1131930B795F7959F5FC9F7880F911D9695879581
S113194097F90895E1E0660F771F881FBB1F6217A0
S113195073078407BA0720F0621B730B840BBA0B5E
S1131960EE1F88F7E09508950E94BB0C6894B111AE
S11319700C94720D08950E94570D88F09F5798F0AB
S1131980B92F9927B751B0F0E1F0660F771F881F80
S1131990991F1AF0BA95C9F714C0B13091F00E949A
S11319A0710DB1E008950C94710D672F782F88277D
S11319B0B85F39F0B93FCCF3869577956795B395C1
S11319C0D9F73EF490958095709561957F4F8F4F30
S11319D09F4F0895E89409C097FB3EF49095809535
S11319E0709561957F4F8F4F9F4F9923A9F0F92FE1
S11319F096E9BB279395F695879577956795B7955F
S1131A00F111F8CFFAF4BB0F11F460FF1BC06F5F44
S1131A107F4F8F4F9F4F16C0882311F096E911C056
S1131A20772321F09EE8872F762F05C0662371F077
S1131A3096E8862F70E060E02AF09A95660F771F8B
S1131A40881FDAF7880F9695879597F9089597F97F
S1131A509F6780E870E060E008959FEF80EC089550
S1131A6000240A9416161706180609060895002479
S1131A700A9412161306140605060895092E0394F3
S1131A80000C11F4882352F0BB0F40F4BF2B11F467
S1131A9060FF04C06F5F7F4F8F4F9F4F089557FDC6
S1131AA09058440F551F59F05F3F71F04795880FC8
S1131AB097FB991F61F09F3F79F08795089512165F
S1131AC013061406551FF2CF4695F1DF08C016160B
S1131AD017061806991FF1CF8695710561050894BC
S1131AE00895E894BB2766277727CB0197F90895D3
S1131AF00E948B0D0C943E0D0E94300D38F00E9414
S1131B00370D20F0952311F00C94270D0C942D0D16
S1131B1011240C94720D0E944F0D70F3959FC1F324
S1131B20950F50E0551F629FF001729FBB27F00D87
S1131B30B11D639FAA27F00DB11DAA1F649F6627DC
S1131B40B00DA11D661F829F2227B00DA11D621F2B
S1131B50739FB00DA11D621F839FA00D611D221FE5
S1131B60749F3327A00D611D231F849F600D211DC9
S1131B70822F762F6A2F11249F5750409AF0F1F04C
S1131B8088234AF0EE0FFF1FBB1F661F771F881FB5
S1131B9091505040A9F79E3F510580F00C94270DB9
S1131BA00C94720D5F3FE4F3983ED4F386957795D9
S1131BB06795B795F795E7959F5FC1F7FE2B880F5B
S1131BC0911D9695879597F90895A1E21A2EAA1B5F
S1131BD0BB1BFD010DC0AA1FBB1FEE1FFF1FA217D9
S1131BE0B307E407F50720F0A21BB30BE40BF50BD6
S1131BF0661F771F881F991F1A9469F7609570955F
S1131C00809590959B01AC01BD01CF010895A29FE1
S1131C10B001B39FC001A39F700D811D1124911DBC
S1131C20B29F700D811D1124911D0895F894FFCF6A
S9030000FC
